{
  "transactions": [
    {
      "hash": "0x499dca3ff3dd7bb5616c95b840b58826181f6c62ac795ef5dd3e966a10168c37",
      "transactionType": "CALL",
      "contractName": null,
      "contractAddress": "0x79981c691528c50d01d383adb497d6a0d91f3053",
      "function": "executeSignedOrderWithPermits((address,address,uint256,address,address,uint256,uint256,uint256,uint256),bytes,bytes,(address,address,uint256,uint256,uint8,bytes32,bytes32),(address,address,uint256,uint256,uint8,bytes32,bytes32))",
      "arguments": [
        "(0xB62738Cc5b235460D736Ca607Be5daE7b7313b16, 0x9bf9d768D081EAC416d46175C50f11234f04a014, 100000000000000000000, 0x9070459bB0cdA8a9dC3C58076a5cF28c41f3Db57, 0x7F25B6565753579D0F49Eaf156170fa545C40557, 1000000000000000000000, 0, 0, 1749862039)",
        "0xaef3e8cca87fa0045b9de0d23f3258dcb577b8db914a20b64626eb3a6f199394393e4f1b542c7a1a76aff8aa37340eb783b6d0e05ec759782d7bf5f064ca5e8e1b",
        "0x17e2ac4b67fa82287d4ef344b8a5713492e172ed6324cd2056864e550756f48f6798c3286e42a0906f93521979ffd19d6c5d2986f06c2af2bb913f209874af301c",
        "(0x9bf9d768D081EAC416d46175C50f11234f04a014, 0xB62738Cc5b235460D736Ca607Be5daE7b7313b16, 100000000000000000000, 1752454039, 27, 0x87b61b3471de45981534a4169bbb2800414d6c25d018ea00f3ad78109a7e5fd1, 0x20868446b4c99c8d21ac59272cc66bfc56b16f70f8008e6e9bad5e2bfa3e4974)",
        "(0x7F25B6565753579D0F49Eaf156170fa545C40557, 0x9070459bB0cdA8a9dC3C58076a5cF28c41f3Db57, 1000000000000000000000, 1752454039, 28, 0x71c5939bfc36b620722d0595c831462aeb67f7a057055922db17d2d44ac58026, 0x2d8c63897ef19bff323d3937d40074d57b8d67465327860fcefaa8f84d784ce3)"
      ],
      "transaction": {
        "from": "0xb62738cc5b235460d736ca607be5dae7b7313b16",
        "to": "0x79981c691528c50d01d383adb497d6a0d91f3053",
        "gas": "0x80c09",
        "value": "0x0",
        "input": "0x2f6ce378000000000000000000000000b62738cc5b235460d736ca607be5dae7b7313b160000000000000000000000009bf9d768d081eac416d46175c50f11234f04a0140000000000000000000000000000000000000000000000056bc75e2d631000000000000000000000000000009070459bb0cda8a9dc3c58076a5cf28c41f3db570000000000000000000000007f25b6565753579d0f49eaf156170fa545c4055700000000000000000000000000000000000000000000003635c9adc5dea000000000000000000000000000000000000000000000000000000000000000000000000000000000000000000000000000000000000000000000000000000000000000000000000000000000000000000000000000000000000000000000684cc697000000000000000000000000000000000000000000000000000000000000032000000000000000000000000000000000000000000000000000000000000003a00000000000000000000000009bf9d768d081eac416d46175c50f11234f04a014000000000000000000000000b62738cc5b235460d736ca607be5dae7b7313b160000000000000000000000000000000000000000000000056bc75e2d631000000000000000000000000000000000000000000000000000000000000068745397000000000000000000000000000000000000000000000000000000000000001b87b61b3471de45981534a4169bbb2800414d6c25d018ea00f3ad78109a7e5fd120868446b4c99c8d21ac59272cc66bfc56b16f70f8008e6e9bad5e2bfa3e49740000000000000000000000007f25b6565753579d0f49eaf156170fa545c405570000000000000000000000009070459bb0cda8a9dc3c58076a5cf28c41f3db5700000000000000000000000000000000000000000000003635c9adc5dea000000000000000000000000000000000000000000000000000000000000068745397000000000000000000000000000000000000000000000000000000000000001c71c5939bfc36b620722d0595c831462aeb67f7a057055922db17d2d44ac580262d8c63897ef19bff323d3937d40074d57b8d67465327860fcefaa8f84d784ce30000000000000000000000000000000000000000000000000000000000000041aef3e8cca87fa0045b9de0d23f3258dcb577b8db914a20b64626eb3a6f199394393e4f1b542c7a1a76aff8aa37340eb783b6d0e05ec759782d7bf5f064ca5e8e1b00000000000000000000000000000000000000000000000000000000000000000000000000000000000000000000000000000000000000000000000000004117e2ac4b67fa82287d4ef344b8a5713492e172ed6324cd2056864e550756f48f6798c3286e42a0906f93521979ffd19d6c5d2986f06c2af2bb913f209874af301c00000000000000000000000000000000000000000000000000000000000000",
        "nonce": "0x3c9",
        "chainId": "0x89"
      },
      "additionalContracts": [],
      "isFixedGasLimit": false
    }
  ],
  "receipts": [
    {
      "status": "0x1",
      "cumulativeGasUsed": "0xbee619",
      "logs": [
        {
          "address": "0x9bf9d768d081eac416d46175c50f11234f04a014",
          "topics": [
            "0x8c5be1e5ebec7d5bd14f71427d1e84f3dd0314c0f7b2291e5b200ac8c7c3b925",
            "0x000000000000000000000000b62738cc5b235460d736ca607be5dae7b7313b16",
            "0x00000000000000000000000079981c691528c50d01d383adb497d6a0d91f3053"
          ],
          "data": "0x0000000000000000000000000000000000000000000000056bc75e2d63100000",
          "blockHash": "0x649350fe65c7ef41c47a30f6851dcb546bbd55713c25d34bb4a58b63db95e9b2",
          "blockNumber": "0x4436a19",
          "transactionHash": "0x499dca3ff3dd7bb5616c95b840b58826181f6c62ac795ef5dd3e966a10168c37",
          "transactionIndex": "0x24",
          "logIndex": "0x875",
          "removed": false
        },
        {
          "address": "0x7f25b6565753579d0f49eaf156170fa545c40557",
          "topics": [
            "0x8c5be1e5ebec7d5bd14f71427d1e84f3dd0314c0f7b2291e5b200ac8c7c3b925",
            "0x0000000000000000000000009070459bb0cda8a9dc3c58076a5cf28c41f3db57",
            "0x00000000000000000000000079981c691528c50d01d383adb497d6a0d91f3053"
          ],
          "data": "0x00000000000000000000000000000000000000000000003635c9adc5dea00000",
          "blockHash": "0x649350fe65c7ef41c47a30f6851dcb546bbd55713c25d34bb4a58b63db95e9b2",
          "blockNumber": "0x4436a19",
          "transactionHash": "0x499dca3ff3dd7bb5616c95b840b58826181f6c62ac795ef5dd3e966a10168c37",
          "transactionIndex": "0x24",
          "logIndex": "0x876",
          "removed": false
        },
        {
          "address": "0xbe06c75f437f5016191ce62a47ea73dac3e4ac37",
          "topics": [
            "0x70a44618bad461d00e0bae2bd99b0d077503b8d465c9cdf78585f7ceaf47d18a",
            "0x0000000000000000000000009bf9d768d081eac416d46175c50f11234f04a014",
            "0x000000000000000000000000b62738cc5b235460d736ca607be5dae7b7313b16",
            "0x0000000000000000000000009070459bb0cda8a9dc3c58076a5cf28c41f3db57"
          ],
          "data": "0x0000000000000000000000000000000000000000000000056bc75e2d631000000000000000000000000000000000000000000000000000000000000000000001",
          "blockHash": "0x649350fe65c7ef41c47a30f6851dcb546bbd55713c25d34bb4a58b63db95e9b2",
          "blockNumber": "0x4436a19",
          "transactionHash": "0x499dca3ff3dd7bb5616c95b840b58826181f6c62ac795ef5dd3e966a10168c37",
          "transactionIndex": "0x24",
          "logIndex": "0x877",
          "removed": false
        },
        {
          "address": "0xbe06c75f437f5016191ce62a47ea73dac3e4ac37",
          "topics": [
            "0x70a44618bad461d00e0bae2bd99b0d077503b8d465c9cdf78585f7ceaf47d18a",
            "0x0000000000000000000000007f25b6565753579d0f49eaf156170fa545c40557",
            "0x0000000000000000000000009070459bb0cda8a9dc3c58076a5cf28c41f3db57",
            "0x000000000000000000000000b62738cc5b235460d736ca607be5dae7b7313b16"
          ],
          "data": "0x00000000000000000000000000000000000000000000003635c9adc5dea000000000000000000000000000000000000000000000000000000000000000000000",
          "blockHash": "0x649350fe65c7ef41c47a30f6851dcb546bbd55713c25d34bb4a58b63db95e9b2",
          "blockNumber": "0x4436a19",
          "transactionHash": "0x499dca3ff3dd7bb5616c95b840b58826181f6c62ac795ef5dd3e966a10168c37",
          "transactionIndex": "0x24",
          "logIndex": "0x878",
          "removed": false
        },
        {
          "address": "0x9bf9d768d081eac416d46175c50f11234f04a014",
          "topics": [
            "0x8c5be1e5ebec7d5bd14f71427d1e84f3dd0314c0f7b2291e5b200ac8c7c3b925",
            "0x000000000000000000000000b62738cc5b235460d736ca607be5dae7b7313b16",
            "0x00000000000000000000000079981c691528c50d01d383adb497d6a0d91f3053"
          ],
          "data": "0x0000000000000000000000000000000000000000000000000000000000000000",
          "blockHash": "0x649350fe65c7ef41c47a30f6851dcb546bbd55713c25d34bb4a58b63db95e9b2",
          "blockNumber": "0x4436a19",
          "transactionHash": "0x499dca3ff3dd7bb5616c95b840b58826181f6c62ac795ef5dd3e966a10168c37",
          "transactionIndex": "0x24",
          "logIndex": "0x879",
          "removed": false
        },
        {
          "address": "0x9bf9d768d081eac416d46175c50f11234f04a014",
          "topics": [
            "0xddf252ad1be2c89b69c2b068fc378daa952ba7f163c4a11628f55a4df523b3ef",
            "0x000000000000000000000000b62738cc5b235460d736ca607be5dae7b7313b16",
            "0x0000000000000000000000009070459bb0cda8a9dc3c58076a5cf28c41f3db57"
          ],
          "data": "0x0000000000000000000000000000000000000000000000056bc75e2d63100000",
          "blockHash": "0x649350fe65c7ef41c47a30f6851dcb546bbd55713c25d34bb4a58b63db95e9b2",
          "blockNumber": "0x4436a19",
          "transactionHash": "0x499dca3ff3dd7bb5616c95b840b58826181f6c62ac795ef5dd3e966a10168c37",
          "transactionIndex": "0x24",
          "logIndex": "0x87a",
          "removed": false
        },
        {
          "address": "0x7f25b6565753579d0f49eaf156170fa545c40557",
          "topics": [
            "0xddf252ad1be2c89b69c2b068fc378daa952ba7f163c4a11628f55a4df523b3ef",
            "0x0000000000000000000000009070459bb0cda8a9dc3c58076a5cf28c41f3db57",
            "0x000000000000000000000000b62738cc5b235460d736ca607be5dae7b7313b16"
          ],
          "data": "0x00000000000000000000000000000000000000000000003635c9adc5dea00000",
          "blockHash": "0x649350fe65c7ef41c47a30f6851dcb546bbd55713c25d34bb4a58b63db95e9b2",
          "blockNumber": "0x4436a19",
          "transactionHash": "0x499dca3ff3dd7bb5616c95b840b58826181f6c62ac795ef5dd3e966a10168c37",
          "transactionIndex": "0x24",
          "logIndex": "0x87b",
          "removed": false
        },
        {
          "address": "0x79981c691528c50d01d383adb497d6a0d91f3053",
          "topics": [
            "0x561b92817bac884ee4cb86d702bc9d7eba0d8e9c584d9530d12d45f1e1d80fe8",
            "0xec9e9b61103df595603ecbba7817872fd72d147735906ea50fa9343a78a999e9",
            "0x0000000000000000000000009bf9d768d081eac416d46175c50f11234f04a014",
            "0x0000000000000000000000007f25b6565753579d0f49eaf156170fa545c40557"
          ],
          "data": "0x000000000000000000000000b62738cc5b235460d736ca607be5dae7b7313b160000000000000000000000000000000000000000000000056bc75e2d631000000000000000000000000000009070459bb0cda8a9dc3c58076a5cf28c41f3db5700000000000000000000000000000000000000000000003635c9adc5dea0000000000000000000000000000000000000000000000000000000000000000000000000000000000000000000000000000000000000000000000000000000000000",
          "blockHash": "0x649350fe65c7ef41c47a30f6851dcb546bbd55713c25d34bb4a58b63db95e9b2",
          "blockNumber": "0x4436a19",
          "transactionHash": "0x499dca3ff3dd7bb5616c95b840b58826181f6c62ac795ef5dd3e966a10168c37",
          "transactionIndex": "0x24",
          "logIndex": "0x87c",
          "removed": false
        },
        {
          "address": "0x0000000000000000000000000000000000001010",
          "topics": [
            "0x4dfe1bbbcf077ddc3e01291eea2d5c70c2b422b415d95645b9adcfd678cb1d63",
            "0x0000000000000000000000000000000000000000000000000000000000001010",
            "0x000000000000000000000000b62738cc5b235460d736ca607be5dae7b7313b16",
            "0x0000000000000000000000009ead03f7136fc6b4bdb0780b00a1c14ae5a8b6d0"
          ],
          "data": "0x00000000000000000000000000000000000000000000000000214f82d51207f50000000000000000000000000000000000000000000000042cdbd05829af9495000000000000000000000000000000000000000000000a5d5c12e5f9aafff7dd0000000000000000000000000000000000000000000000042cba80d5549d8ca0000000000000000000000000000000000000000000000a5d5c34357c8011ffd2",
          "blockHash": "0x649350fe65c7ef41c47a30f6851dcb546bbd55713c25d34bb4a58b63db95e9b2",
          "blockNumber": "0x4436a19",
          "transactionHash": "0x499dca3ff3dd7bb5616c95b840b58826181f6c62ac795ef5dd3e966a10168c37",
          "transactionIndex": "0x24",
          "logIndex": "0x87d",
          "removed": false
        }
      ],
      "logsBloom": "0x000200000000000000000000000000000000010020000000000000000000100000000000000400000000000008000000000080000000000000500000002000000000000000000000004001080010008000000000000000400001000000000400400000000400000000000000000000000000000000100000820000100080000000400000000400000000000000000000001000000000000000000000000000012200000000000800000000000000000000004008000000000400000000000c4000000002000100000001000000000000000000000000000000120200040000000010000000001000000000000000200000000400000200000000000000120000",
      "type": "0x2",
      "transactionHash": "0x499dca3ff3dd7bb5616c95b840b58826181f6c62ac795ef5dd3e966a10168c37",
      "transactionIndex": "0x24",
      "blockHash": "0x649350fe65c7ef41c47a30f6851dcb546bbd55713c25d34bb4a58b63db95e9b2",
      "blockNumber": "0x4436a19",
      "gasUsed": "0x58093",
      "effectiveGasPrice": "0x60ef4099e",
      "from": "0xb62738cc5b235460d736ca607be5dae7b7313b16",
      "to": "0x79981c691528c50d01d383adb497d6a0d91f3053",
      "contractAddress": null
    }
  ],
  "libraries": [],
  "pending": [],
  "returns": {},
  "timestamp": 1747270065,
  "chain": 137,
  "commit": "763e47a"
}