{
  "transactions": [
    {
      "hash": "0xcedd530a6041184c27578dd1dde4e97f665079c720e9e4c9a2d120bd7f95dcd0",
      "transactionType": "CALL",
      "contractName": null,
      "contractAddress": "0x16581812635f2fefaefb63689c7221f1f906e8aa",
      "function": "registerToken(address,string,uint8,bool)",
      "arguments": [
        "0x9bf9d768D081EAC416d46175C50f11234f04a014",
        "STKN",
        "18",
        "false"
      ],
      "transaction": {
        "from": "0xb62738cc5b235460d736ca607be5dae7b7313b16",
        "to": "0x16581812635f2fefaefb63689c7221f1f906e8aa",
        "gas": "0x260ff",
        "value": "0x0",
        "input": "0x1ef3a8560000000000000000000000009bf9d768d081eac416d46175c50f11234f04a014000000000000000000000000000000000000000000000000000000000000008000000000000000000000000000000000000000000000000000000000000000120000000000000000000000000000000000000000000000000000000000000000000000000000000000000000000000000000000000000000000000000000000453544b4e00000000000000000000000000000000000000000000000000000000",
        "nonce": "0x3c5",
        "chainId": "0x89"
      },
      "additionalContracts": [],
      "isFixedGasLimit": false
    },
    {
      "hash": "0x77874e2d01b6fd15e34366e18011727bfec992ab1cb36c4b1691c016f7b49378",
      "transactionType": "CALL",
      "contractName": null,
      "contractAddress": "0x16581812635f2fefaefb63689c7221f1f906e8aa",
      "function": "confirmTokenRegistration(address,string,uint8,bool)",
      "arguments": [
        "0x9bf9d768D081EAC416d46175C50f11234f04a014",
        "STKN",
        "18",
        "false"
      ],
      "transaction": {
        "from": "0xb62738cc5b235460d736ca607be5dae7b7313b16",
        "to": "0x16581812635f2fefaefb63689c7221f1f906e8aa",
        "gas": "0x25f3b",
        "value": "0x0",
        "input": "0x192d18800000000000000000000000009bf9d768d081eac416d46175c50f11234f04a014000000000000000000000000000000000000000000000000000000000000008000000000000000000000000000000000000000000000000000000000000000120000000000000000000000000000000000000000000000000000000000000000000000000000000000000000000000000000000000000000000000000000000453544b4e00000000000000000000000000000000000000000000000000000000",
        "nonce": "0x3c6",
        "chainId": "0x89"
      },
      "additionalContracts": [],
      "isFixedGasLimit": false
    },
    {
      "hash": "0x76644e4e8b3306892b0d6b2aa2dfeffb12d8c39f061c19d774da796a2a4f6a91",
      "transactionType": "CALL",
      "contractName": null,
      "contractAddress": "0x16581812635f2fefaefb63689c7221f1f906e8aa",
      "function": "registerToken(address,string,uint8,bool)",
      "arguments": [
        "0x7F25B6565753579D0F49Eaf156170fa545C40557",
        "tUSD",
        "18",
        "false"
      ],
      "transaction": {
        "from": "0xb62738cc5b235460d736ca607be5dae7b7313b16",
        "to": "0x16581812635f2fefaefb63689c7221f1f906e8aa",
        "gas": "0x2450a",
        "value": "0x0",
        "input": "0x1ef3a8560000000000000000000000007f25b6565753579d0f49eaf156170fa545c4055700000000000000000000000000000000000000000000000000000000000000800000000000000000000000000000000000000000000000000000000000000012000000000000000000000000000000000000000000000000000000000000000000000000000000000000000000000000000000000000000000000000000000047455534400000000000000000000000000000000000000000000000000000000",
        "nonce": "0x3c7",
        "chainId": "0x89"
      },
      "additionalContracts": [],
      "isFixedGasLimit": false
    },
    {
      "hash": "0x7fd2dd6cbbfc05cba4c9e4f71eef41ed18c7691d3d4013e776c8f4c815d3ebfb",
      "transactionType": "CALL",
      "contractName": null,
      "contractAddress": "0x16581812635f2fefaefb63689c7221f1f906e8aa",
      "function": "confirmTokenRegistration(address,string,uint8,bool)",
      "arguments": [
        "0x7F25B6565753579D0F49Eaf156170fa545C40557",
        "tUSD",
        "18",
        "false"
      ],
      "transaction": {
        "from": "0xb62738cc5b235460d736ca607be5dae7b7313b16",
        "to": "0x16581812635f2fefaefb63689c7221f1f906e8aa",
        "gas": "0x25f3b",
        "value": "0x0",
        "input": "0x192d18800000000000000000000000007f25b6565753579d0f49eaf156170fa545c4055700000000000000000000000000000000000000000000000000000000000000800000000000000000000000000000000000000000000000000000000000000012000000000000000000000000000000000000000000000000000000000000000000000000000000000000000000000000000000000000000000000000000000047455534400000000000000000000000000000000000000000000000000000000",
        "nonce": "0x3c8",
        "chainId": "0x89"
      },
      "additionalContracts": [],
      "isFixedGasLimit": false
    }
  ],
  "receipts": [
    {
      "status": "0x1",
      "cumulativeGasUsed": "0x19d4072",
      "logs": [
        {
          "address": "0x16581812635f2fefaefb63689c7221f1f906e8aa",
          "topics": [
            "0x68883fcaed6e30efacf6b8f577d29e1b27be129d4005ce56bdfd34891d26e4db",
            "0x0000000000000000000000009bf9d768d081eac416d46175c50f11234f04a014"
          ],
          "data": "0x000000000000000000000000000000000000000000000000000000000000006000000000000000000000000000000000000000000000000000000000000000120000000000000000000000000000000000000000000000000000000000000000000000000000000000000000000000000000000000000000000000000000000453544b4e00000000000000000000000000000000000000000000000000000000",
          "blockHash": "0x380c345f3bff112d899cbb3940147cb0de1a5916258d7a5f3feb1b0b59e04fec",
          "blockNumber": "0x44369eb",
          "transactionHash": "0xcedd530a6041184c27578dd1dde4e97f665079c720e9e4c9a2d120bd7f95dcd0",
          "transactionIndex": "0x2a",
          "logIndex": "0x17f",
          "removed": false
        },
        {
          "address": "0x0000000000000000000000000000000000001010",
          "topics": [
            "0x4dfe1bbbcf077ddc3e01291eea2d5c70c2b422b415d95645b9adcfd678cb1d63",
            "0x0000000000000000000000000000000000000000000000000000000000001010",
            "0x000000000000000000000000b62738cc5b235460d736ca607be5dae7b7313b16",
            "0x00000000000000000000000073632b875d37e12670c03e8ca17f471134b872fb"
          ],
          "data": "0x0000000000000000000000000000000000000000000000000009f1dd44e45b790000000000000000000000000000000000000000000000042d0447feeb5a3a65000000000000000000000000000000000000000000000019a3bae03cf69dfb0b0000000000000000000000000000000000000000000000042cfa5621a675deec000000000000000000000000000000000000000000000019a3c4d21a3b825684",
          "blockHash": "0x380c345f3bff112d899cbb3940147cb0de1a5916258d7a5f3feb1b0b59e04fec",
          "blockNumber": "0x44369eb",
          "transactionHash": "0xcedd530a6041184c27578dd1dde4e97f665079c720e9e4c9a2d120bd7f95dcd0",
          "transactionIndex": "0x2a",
          "logIndex": "0x180",
          "removed": false
        }
      ],
      "logsBloom": "0x00000000000000000000000000000000020001000000000000000000000000000000000000000000000000000000000000008000000000000010000000000000000000000000000000000100004000800000000000000000000100000000400000000000000000000000100000000000000000000010000080000000000000000001000000000000000002000000000000000000000000000000000000000000200000200000000000000000000000000000000800000000000000000000004000000000000000000001000000000000200000000000000000100000000000000000000000001000000000000000000000000000000000000000000002100000",
      "type": "0x2",
      "transactionHash": "0xcedd530a6041184c27578dd1dde4e97f665079c720e9e4c9a2d120bd7f95dcd0",
      "transactionIndex": "0x2a",
      "blockHash": "0x380c345f3bff112d899cbb3940147cb0de1a5916258d7a5f3feb1b0b59e04fec",
      "blockNumber": "0x44369eb",
      "gasUsed": "0x1a069",
      "effectiveGasPrice": "0x61e890684",
      "from": "0xb62738cc5b235460d736ca607be5dae7b7313b16",
      "to": "0x16581812635f2fefaefb63689c7221f1f906e8aa",
      "contractAddress": null
    },
    {
      "status": "0x1",
      "cumulativeGasUsed": "0x19ef812",
      "logs": [
        {
          "address": "0x16581812635f2fefaefb63689c7221f1f906e8aa",
          "topics": [
            "0x56a6feec3e7059c007f89d09c1386574d5bc875372c4f0497b739a20139bf964",
            "0x0000000000000000000000009bf9d768d081eac416d46175c50f11234f04a014"
          ],
          "data": "0x000000000000000000000000000000000000000000000000000000000000006000000000000000000000000000000000000000000000000000000000000000120000000000000000000000000000000000000000000000000000000000000000000000000000000000000000000000000000000000000000000000000000000453544b4e00000000000000000000000000000000000000000000000000000000",
          "blockHash": "0x380c345f3bff112d899cbb3940147cb0de1a5916258d7a5f3feb1b0b59e04fec",
          "blockNumber": "0x44369eb",
          "transactionHash": "0x77874e2d01b6fd15e34366e18011727bfec992ab1cb36c4b1691c016f7b49378",
          "transactionIndex": "0x2b",
          "logIndex": "0x181",
          "removed": false
        },
        {
          "address": "0x0000000000000000000000000000000000001010",
          "topics": [
            "0x4dfe1bbbcf077ddc3e01291eea2d5c70c2b422b415d95645b9adcfd678cb1d63",
            "0x0000000000000000000000000000000000000000000000000000000000001010",
            "0x000000000000000000000000b62738cc5b235460d736ca607be5dae7b7313b16",
            "0x00000000000000000000000073632b875d37e12670c03e8ca17f471134b872fb"
          ],
          "data": "0x000000000000000000000000000000000000000000000000000a7fcbcf4901a00000000000000000000000000000000000000000000000042cfa53ddba900e41000000000000000000000000000000000000000000000019a3c4d21a3b8256840000000000000000000000000000000000000000000000042cefd411eb470ca1000000000000000000000000000000000000000000000019a3cf51e60acb5824",
          "blockHash": "0x380c345f3bff112d899cbb3940147cb0de1a5916258d7a5f3feb1b0b59e04fec",
          "blockNumber": "0x44369eb",
          "transactionHash": "0x77874e2d01b6fd15e34366e18011727bfec992ab1cb36c4b1691c016f7b49378",
          "transactionIndex": "0x2b",
          "logIndex": "0x182",
          "removed": false
        }
      ],
      "logsBloom": "0x00000000000000000000000000000000020001000000000000000000000000000000000000000000000000000000000000008000000000000010000000000000000020000000000000000100000000800000000000000000000100000000400000000000000000000000000000000000000000000010000080000000000000000001000000000000000002000000000000000000000100000000000000000000200000200000000000000000000000000000000800000000400000000000004000000000000000000001000000000000000000000000000000100000000000000000000000001000000000000000000000000000000000000000000002100000",
      "type": "0x2",
      "transactionHash": "0x77874e2d01b6fd15e34366e18011727bfec992ab1cb36c4b1691c016f7b49378",
      "transactionIndex": "0x2b",
      "blockHash": "0x380c345f3bff112d899cbb3940147cb0de1a5916258d7a5f3feb1b0b59e04fec",
      "blockNumber": "0x44369eb",
      "gasUsed": "0x1b7a0",
      "effectiveGasPrice": "0x61e890684",
      "from": "0xb62738cc5b235460d736ca607be5dae7b7313b16",
      "to": "0x16581812635f2fefaefb63689c7221f1f906e8aa",
      "contractAddress": null
    },
    {
      "status": "0x1",
      "cumulativeGasUsed": "0x1a0855d",
      "logs": [
        {
          "address": "0x16581812635f2fefaefb63689c7221f1f906e8aa",
          "topics": [
            "0x68883fcaed6e30efacf6b8f577d29e1b27be129d4005ce56bdfd34891d26e4db",
            "0x0000000000000000000000007f25b6565753579d0f49eaf156170fa545c40557"
          ],
          "data": "0x00000000000000000000000000000000000000000000000000000000000000600000000000000000000000000000000000000000000000000000000000000012000000000000000000000000000000000000000000000000000000000000000000000000000000000000000000000000000000000000000000000000000000047455534400000000000000000000000000000000000000000000000000000000",
          "blockHash": "0x380c345f3bff112d899cbb3940147cb0de1a5916258d7a5f3feb1b0b59e04fec",
          "blockNumber": "0x44369eb",
          "transactionHash": "0x76644e4e8b3306892b0d6b2aa2dfeffb12d8c39f061c19d774da796a2a4f6a91",
          "transactionIndex": "0x2c",
          "logIndex": "0x183",
          "removed": false
        },
        {
          "address": "0x0000000000000000000000000000000000001010",
          "topics": [
            "0x4dfe1bbbcf077ddc3e01291eea2d5c70c2b422b415d95645b9adcfd678cb1d63",
            "0x0000000000000000000000000000000000000000000000000000000000001010",
            "0x000000000000000000000000b62738cc5b235460d736ca607be5dae7b7313b16",
            "0x00000000000000000000000073632b875d37e12670c03e8ca17f471134b872fb"
          ],
          "data": "0x00000000000000000000000000000000000000000000000000097cfc2512877b0000000000000000000000000000000000000000000000042cefd1adaabf9fc1000000000000000000000000000000000000000000000019a3cf51e60acb58240000000000000000000000000000000000000000000000042ce654b185ad1846000000000000000000000000000000000000000000000019a3d8cee22fdddf9f",
          "blockHash": "0x380c345f3bff112d899cbb3940147cb0de1a5916258d7a5f3feb1b0b59e04fec",
          "blockNumber": "0x44369eb",
          "transactionHash": "0x76644e4e8b3306892b0d6b2aa2dfeffb12d8c39f061c19d774da796a2a4f6a91",
          "transactionIndex": "0x2c",
          "logIndex": "0x184",
          "removed": false
        }
      ],
      "logsBloom": "0x00000000000000000000000000000000020000000000000000000000000000000000000000000000000000000000000000008000000000000050000000000000000000000000000000400100004000800000000000000000000100000000400000000000000000000000100000000000000000000000000080000000000000000001000000000000000002000000000000000000000000000000000000000000220000200000000000000000000000000000000800000000000000000000004000000000000000000001000000000000200000000000000000100000000000000000000000000000000000000000000000000000000000000000000002100000",
      "type": "0x2",
      "transactionHash": "0x76644e4e8b3306892b0d6b2aa2dfeffb12d8c39f061c19d774da796a2a4f6a91",
      "transactionIndex": "0x2c",
      "blockHash": "0x380c345f3bff112d899cbb3940147cb0de1a5916258d7a5f3feb1b0b59e04fec",
      "blockNumber": "0x44369eb",
      "gasUsed": "0x18d4b",
      "effectiveGasPrice": "0x61e890684",
      "from": "0xb62738cc5b235460d736ca607be5dae7b7313b16",
      "to": "0x16581812635f2fefaefb63689c7221f1f906e8aa",
      "contractAddress": null
    },
    {
      "status": "0x1",
      "cumulativeGasUsed": "0x1a23cfd",
      "logs": [
        {
          "address": "0x16581812635f2fefaefb63689c7221f1f906e8aa",
          "topics": [
            "0x56a6feec3e7059c007f89d09c1386574d5bc875372c4f0497b739a20139bf964",
            "0x0000000000000000000000007f25b6565753579d0f49eaf156170fa545c40557"
          ],
          "data": "0x00000000000000000000000000000000000000000000000000000000000000600000000000000000000000000000000000000000000000000000000000000012000000000000000000000000000000000000000000000000000000000000000000000000000000000000000000000000000000000000000000000000000000047455534400000000000000000000000000000000000000000000000000000000",
          "blockHash": "0x380c345f3bff112d899cbb3940147cb0de1a5916258d7a5f3feb1b0b59e04fec",
          "blockNumber": "0x44369eb",
          "transactionHash": "0x7fd2dd6cbbfc05cba4c9e4f71eef41ed18c7691d3d4013e776c8f4c815d3ebfb",
          "transactionIndex": "0x2d",
          "logIndex": "0x185",
          "removed": false
        },
        {
          "address": "0x0000000000000000000000000000000000001010",
          "topics": [
            "0x4dfe1bbbcf077ddc3e01291eea2d5c70c2b422b415d95645b9adcfd678cb1d63",
            "0x0000000000000000000000000000000000000000000000000000000000001010",
            "0x000000000000000000000000b62738cc5b235460d736ca607be5dae7b7313b16",
            "0x00000000000000000000000073632b875d37e12670c03e8ca17f471134b872fb"
          ],
          "data": "0x000000000000000000000000000000000000000000000000000a7fcbcf4901a00000000000000000000000000000000000000000000000042ce6528839800315000000000000000000000000000000000000000000000019a3d8cee22fdddf9f0000000000000000000000000000000000000000000000042cdbd2bc6a370175000000000000000000000000000000000000000000000019a3e34eadff26e13f",
          "blockHash": "0x380c345f3bff112d899cbb3940147cb0de1a5916258d7a5f3feb1b0b59e04fec",
          "blockNumber": "0x44369eb",
          "transactionHash": "0x7fd2dd6cbbfc05cba4c9e4f71eef41ed18c7691d3d4013e776c8f4c815d3ebfb",
          "transactionIndex": "0x2d",
          "logIndex": "0x186",
          "removed": false
        }
      ],
      "logsBloom": "0x00000000000000000000000000000000020000000000000000000000000000000000000000000000000000000000000000008000000000000050000000000000000020000000000000400100000000800000000000000000000100000000400000000000000000000000000000000000000000000000000080000000000000000001000000000000000002000000000000000000000100000000000000000000220000200000000000000000000000000000000800000000400000000000004000000000000000000001000000000000000000000000000000100000000000000000000000000000000000000000000000000000000000000000000002100000",
      "type": "0x2",
      "transactionHash": "0x7fd2dd6cbbfc05cba4c9e4f71eef41ed18c7691d3d4013e776c8f4c815d3ebfb",
      "transactionIndex": "0x2d",
      "blockHash": "0x380c345f3bff112d899cbb3940147cb0de1a5916258d7a5f3feb1b0b59e04fec",
      "blockNumber": "0x44369eb",
      "gasUsed": "0x1b7a0",
      "effectiveGasPrice": "0x61e890684",
      "from": "0xb62738cc5b235460d736ca607be5dae7b7313b16",
      "to": "0x16581812635f2fefaefb63689c7221f1f906e8aa",
      "contractAddress": null
    }
  ],
  "libraries": [],
  "pending": [],
  "returns": {},
  "timestamp": 1747269966,
  "chain": 137,
  "commit": "763e47a"
}